:100000000C942A000C9447000C9447000C94470071
:100010000C9447000C9447000C9447000C94470044
:100020000C9447000C9447000C9447000C94470034
:100030000C9447000C9447000C9447000C94470024
:100040000C9447000C9447000C9447000C94470014
:100050000C94470011241FBECFE5D4E0DEBFCDBF16
:1000600010E0A0E6B0E0ECE2F6E002C005900D92F0
:10007000AE36B107D9F710E0AEE6B0E001C01D9290
:10008000AF37B107E1F70E94C8010C9414030C9438
:100090000000282F207F25BBA898A898AA9A20E4C2
:1000A0003FE1F9013197F1F7AA9890E044E0880F19
:1000B000991F4A95E1F785BBAA9AC9010197F1F703
:1000C000AA98089582E090E00E94490088E290E0BA
:1000D0000E9449008CE090E00E94490086E090E098
:1000E0000E9449000895282F207F25BBA89AAA9A2C
:1000F00020E43FE1F9013197F1F7AA9890E054E04C
:10010000880F991F5A95E1F785BBA89AAA9AC90149
:100110000197F1F7AA980895EF92FF921F93CF935A
:10012000DF93EC0110E060EAE62E6FE0F62E06C0E9
:100130000E9473001F5FC7010197F1F7FE01E10FF5
:10014000F11D80818823A1F7DF91CF911F91FF904E
:10015000EF900895CF93DF93EC0184E00E94490073
:10016000209791F480E30E9473000EC0CE016AE0F4
:1001700070E00E94ED02805D0E947300CE016AE093
:1001800070E00E94ED02EB01209781F786E00E946B
:100190004900DF91CF9108958FEE8BBB80E49CE9FD
:1001A0000197F1F7C89B03C020E030E006C0C89B70
:1001B000FECF81E088BB21E330E0C99906C0C99B2E
:1001C000FECF82E088BB22E330E0CA9906C0CA9B1A
:1001D000FECF83E088BB23E330E0CB9906C0CB9B06
:1001E000FECF84E088BB2BE230E08FED8BBB80E458
:1001F0009CE90197F1F7C89906C0C89BFECF85E03E
:1002000088BB24E330E0C99906C0C99BFECF86E0D5
:1002100088BB25E330E0CA9906C0CA9BFECF87E0C1
:1002200088BB26E330E0CB9906C0CB9BFECF88E0AD
:1002300088BB2DE230E08FEB8BBB80E49CE901971B
:10024000F1F7C89906C0C89BFECF89E088BB27E3B9
:1002500030E0C99906C0C99BFECF8AE088BB28E37D
:1002600030E0CA9906C0CA9BFECF8BE088BB29E369
:1002700030E0CB9906C0CB9BFECF8CE088BB2FE251
:1002800030E08FE78BBB80E49CE90197F1F7C899D8
:1002900006C0C89BFECF8DE088BB23E430E0C9993F
:1002A00006C0C99BFECF8EE088BB20E330E0CA9930
:1002B00006C0CA9BFECF8FE088BB2DE330E0CB9910
:1002C00006C0CB9BFECF80E188BB2AE230E0822FC4
:1002D0000895809172008B3261F08C3220F48A3262
:1002E00009F055C040C08D3279F08F3209F04FC00F
:1002F00024C0809175009091760020917300309118
:100300007400820F931F14C0209173003091740009
:100310008091750090917600281739073CF0281BD2
:10032000390B30937800209377000895821B930B4C
:100330009093780080937700089520917300309116
:10034000740060917500709176002617370714F0DD
:10035000C90102C0CB01B9010E940103709378006A
:1003600060937700089580917500909176002091B8
:10037000730030917400AC01429FC001439F900D07
:10038000529F900D112490937800809377000895E8
:100390001F93CF93DF938FEF84BB0E94620080EFA7
:1003A0008ABBC0E9D1E010927400109273001092E1
:1003B00076001092750010927A00109279001092D7
:1003C0007C0010927B0081E00E94490080E80E943E
:1003D000490080E690E00E948C0080E197E2FE01F7
:1003E0003197F1F70197D9F781E00E94490080E841
:1003F0000E94490010E80E94CC008093710088237D
:10040000D1F38B3209F43CC08D32D9F08F32C9F070
:100410008A32B9F08D3321F0833409F044C011C021
:100420008EEC0E94490080917700909178000E94A4
:10043000AA0088EB98E8FE013197F1F70197D9F708
:10044000B2CF8334E9F480917300909174006AE034
:1004500070E00E9401037093740060937300115068
:10046000812F0E94490080E20E94730080917900F0
:1004700090917A00019790937A0080937900BBCF96
:10048000812F0E944900809171008093720080E268
:100490000E947300809172000E94730080E20E94AB
:1004A00073001D5F32C080538B3008F0A4CF812FC2
:1004B0000E944900809171000E9473004091710078
:1004C00080917300909174009C01A3E0220F331F70
:1004D000AA95E1F7880F991F280F391F240F311DA6
:1004E0002053304030937400209373008091790042
:1004F00090917A00FC01E259FF4F4083019690935E
:100500007A00809379001F5F76CF0E94CC00982FED
:10051000809371008D3319F0833489F513C00E94E4
:1005200069018EEC0E9449008091770090917800DB
:100530000E94AA0088EB98E8FE013197F1F7019735
:10054000D9F731CF80917300909174006AE070E028
:100550000E9401037093740060937300812F815097
:100560000E94490080E20E9473008091790090917E
:100570007A00019790937A0080937900C6CF8053D8
:100580008B3008F0C2CF892F0E9473004091710018
:1005900080917500909176009C01E3E0220F331F5B
:1005A000EA95E1F7880F991F280F391F240F311D95
:1005B00020533040309376002093750080917B006B
:1005C00090917C00FC01E159FF4F4083019690938C
:1005D0007C0080937B001F5F98CFAA1BBB1B51E15F
:1005E00007C0AA1FBB1FA617B70710F0A61BB70BA3
:1005F000881F991F5A95A9F780959095BC01CD0148
:10060000089597FB092E07260AD077FD04D0E5DF71
:1006100006D000201AF4709561957F4F0895F6F783
:0C062000909581959F4F0895F894FFCFAE
:0E062C0020202043616C63756C61746F720056
:00000001FF
