:100000000C9446000C9465000C9465000C946500FB
:100010000C9465000C9465000C9465000C946500CC
:100020000C9465000C9465000C9465000C946500BC
:100030000C9465000C9465000C9465000C946500AC
:100040000C9465000C9465000C9465000C9465009C
:100050000C9465000C9465000C9465000C9465008C
:100060000C9465000C9465000C9465000C9465007C
:100070000C9465000C9465000C9465000C9465006C
:100080000C9465000C9465000C94650011241FBE4F
:10009000CFEFD0E1DEBFCDBF11E0A0E0B1E0E8EEF0
:1000A000F1E000E00BBF02C007900D92A030B10755
:1000B000D9F711E0A0E0B1E001C01D92A230B10774
:1000C000E1F70E94C8000C94F2000C940000282F65
:1000D000207F25BBA898A898AA9A20E43FE1F901BF
:1000E0003197F1F7AA9890E044E0880F991F4A955C
:1000F000E1F785BBAA9AC9010197F1F7AA9808957B
:1001000082E090E00E94670088E290E00E94670031
:100110008CE090E00E94670086E090E00E9467001B
:100120000895282F207F25BBA89AAA9A20E43FE1B2
:10013000F9013197F1F7AA9890E054E0880F991FE0
:100140005A95E1F785BBA89AAA9AC9010197F1F7D8
:10015000AA980895EF92FF921F93CF93DF93EC013B
:1001600010E060EAE62E6FE0F62E06C00E949100D5
:100170001F5FC7010197F1F7FE01E10FF11D8081BB
:100180008823A1F7DF91CF911F91FF90EF90089501
:100190001F93CF93DF938FEF84BB0E9480001FE8F3
:1001A000C0E9D1E01BC0812F0E94670081E40E945A
:1001B000910088E893E1FE013197F1F70197D9F7B3
:1001C000812F0E94670080E20E9491008AEF90E0F8
:1001D000FE013197F1F70197D9F7115017FDE3CFE1
:0801E0001FE8E1CFF894FFCF06
:00000001FF
