:100000000C9446000C9465000C9465000C946500FB
:100010000C9465000C9465000C9465000C946500CC
:100020000C9465000C9465000C9465000C946500BC
:100030000C9465000C9465000C9465000C946500AC
:100040000C9465000C9465000C9465000C9465009C
:100050000C9465000C9465000C9465000C9465008C
:100060000C9465000C9465000C9465000C9465007C
:100070000C9465000C9465000C9465000C9465006C
:100080000C9465000C9465000C94650011241FBE4F
:10009000CFEFD0E1DEBFCDBF11E0A0E0B1E0E6E7F9
:1000A000F2E000E00BBF02C007900D92A030B10754
:1000B000D9F711E0A0E0B1E001C01D92A230B10774
:1000C000E1F70E94E5000C9439010C940000282F00
:1000D000207F25BBA898A898AA9A20E43FE1F901BF
:1000E0003197F1F7AA9890E044E0880F991F4A955C
:1000F000E1F785BBAA9AC9010197F1F7AA9808957B
:1001000082E090E00E94670088E290E00E94670031
:100110008CE090E00E94670086E090E00E9467001B
:100120000895282F207F25BBA89AAA9A20E43FE1B2
:10013000F9013197F1F7AA9890E054E0880F991FE0
:100140005A95E1F785BBA89AAA9AC9010197F1F7D8
:10015000AA980895EF92FF921F93CF93DF93EC013B
:1001600010E060EAE62E6FE0F62E06C00E949100D5
:100170001F5FC7010197F1F7FE01E10FF11D8081BB
:100180008823A1F7DF91CF911F91FF90EF90089501
:100190000F931F938C0184E00E946700C8016AE0FE
:1001A00070E00E941201805D0E949100C8016AE027
:1001B00070E00E941201862F805D0E94910086E00F
:1001C0000E9467001F910F9108950F931F93CF9383
:1001D000DF9314BA8FEF87BB18BA0E94800080E8C3
:1001E0000E946700C0E0D0E000EA1FE0C899FECF9F
:1001F00020E030E0C89906C0C89BFECF2196C80118
:100200000197F1F72F5F3F4F87E22031380791F7D1
:1002100018BACE0166E070E00E942601CB010E9470
:10022000C800E4CFAA1BBB1B51E107C0AA1FBB1F1C
:10023000A617B70710F0A61BB70B881F991F5A9572
:10024000A9F780959095BC01CD01089597FB092EE3
:1002500007260AD077FD04D0E5DF06D000201AF487
:10026000709561957F4F0895F6F7909581959F4F12
:060270000895F894FFCF91
:00000001FF
