:100000000C9446000C9465000C9465000C946500FB
:100010000C9465000C9465000C9465000C946500CC
:100020000C9465000C9465000C9465000C946500BC
:100030000C9465000C9465000C9465000C946500AC
:100040000C9465000C9465000C9465000C9465009C
:100050000C9465000C9465000C9465000C9465008C
:100060000C9465000C9465000C9465000C9465007C
:100070000C9465000C9465000C9465000C9465006C
:100080000C9465000C9465000C94650011241FBE4F
:10009000CFEFD0E1DEBFCDBF11E0A0E0B1E0EAEEEE
:1000A000F2E000E00BBF02C007900D92A631B1074D
:1000B000D9F711E0A6E1B1E001C01D92A831B10766
:1000C000E1F70E94EA000C9473010C940000282FC1
:1000D000207F25BBA898A898AA9A20E43FE1F901BF
:1000E0003197F1F7AA9890E044E0880F991F4A955C
:1000F000E1F785BBAA9AC9010197F1F7AA9808957B
:1001000082E090E00E94670088E290E00E94670031
:100110008CE090E00E94670086E090E00E9467001B
:100120000895282F207F25BBA89AAA9A20E43FE1B2
:10013000F9013197F1F7AA9890E054E0880F991FE0
:100140005A95E1F785BBA89AAA9AC9010197F1F7D8
:10015000AA980895EF92FF921F93CF93DF93EC013B
:1001600010E060EAE62E6FE0F62E06C00E949100D5
:100170001F5FC7010197F1F7FE01E10FF11D8081BB
:100180008823A1F7DF91CF911F91FF90EF90089501
:10019000CF93DF93EC0184E00E946700209791F4F5
:1001A00080E30E9491000EC0CE016AE070E00E94E0
:1001B0005F01805D0E949100CE016AE070E00E94C4
:1001C0005F01EB01209781F786E00E946700DF91D5
:1001D000CF910895CF92DF92EF92FF920F931F93EA
:1001E000CF93DF938FEF84BB0E94800080E80E9452
:1001F000670080E091E00E94AA0080EC0E94670006
:100200008BE091E00E94AA0080E487B987E886B974
:10021000F0E4CF2EE1E4DE2E70E9E72E71E0F72E58
:10022000C7B8369A349BFECF349AC4B1D5B1D7B88B
:10023000369A349BFECF349A04B115B18CE80E94F3
:10024000670080E20E94910080E20E94910080E2BB
:100250000E94910080E20E9491008FE80E94670056
:10026000CE010E94C8008CEC0E94670080E20E94D0
:10027000910080E20E94910080E20E94910080E261
:100280000E9491008FEC0E946700C8010E94C80084
:1002900080E197E2F7013197F1F70197D9F7C0CFE5
:1002A00080E487B987E886B90895806487B9369A6B
:1002B000349BFECF349A24B135B1C9010895AA1BED
:1002C000BB1B51E107C0AA1FBB1FA617B70710F041
:1002D000A61BB70B881F991F5A95A9F78095909573
:0A02E000BC01CD010895F894FFCF92
:1002EA00414443312056616C7565004144433220D4
:0602FA0056616C75650001
:00000001FF
