:100000000C9446000C9465000C9465000C946500FB
:100010000C9465000C9465000C9465000C946500CC
:100020000C9465000C9465000C9465000C946500BC
:100030000C9465000C9465000C9465000C946500AC
:100040000C9465000C9465000C9465000C9465009C
:100050000C9465000C9465000C9465000C9465008C
:100060000C9465000C9465000C9465000C9465007C
:100070000C9465000C9465000C9465000C9465006C
:100080000C9465000C9465000C94650011241FBE4F
:10009000CFEFD0E1DEBFCDBF11E0A0E0B1E0EAECF0
:1000A000F2E000E00BBF02C007900D92A030B10754
:1000B000D9F711E0A0E0B1E001C01D92A230B10774
:1000C000E1F70E94F9000C9463010C940000282FC2
:1000D000207F25BBA898A898AA9A20E43FE1F901BF
:1000E0003197F1F7AA9890E044E0880F991F4A955C
:1000F000E1F785BBAA9AC9010197F1F7AA9808957B
:1001000082E090E00E94670088E290E00E94670031
:100110008CE090E00E94670086E090E00E9467001B
:100120000895282F207F25BBA89AAA9A20E43FE1B2
:10013000F9013197F1F7AA9890E054E0880F991FE0
:100140005A95E1F785BBA89AAA9AC9010197F1F7D8
:10015000AA980895EF92FF921F93CF93DF93EC013B
:1001600010E060EAE62E6FE0F62E06C00E949100D5
:100170001F5FC7010197F1F7FE01E10FF11D8081BB
:100180008823A1F7DF91CF911F91FF90EF90089501
:10019000CF93DF93EC0184E00E946700209791F4F5
:1001A00080E30E9491000EC0CE016AE070E00E94E0
:1001B0004F01805D0E949100CE016AE070E00E94D4
:1001C0004F01EB01209781F786E00E946700DF91E5
:1001D000CF91089580E487B987E886B9089580644F
:1001E00087B9369A349BFECF349A24B135B1C90110
:1001F0000895FF920F931F9380E487B987E886B92B
:100200000E9480001ABA8FEF87BB84BB18BA00E443
:1002100011E4B6E060E27EE440E45CE9A4E0F5E0ED
:10022000FF24F39407B9369A349BFECF349A24B155
:1002300035B117B9369A349BFECF349A84B195B153
:10024000E2E088359E07F8F481E02039380740F471
:10025000F8BACB010197F1F718BACA010197F1F783
:10026000C901815991408F58914040F4F8BBCB01AE
:100270000197F1F718BACA010197F1F721523340FB
:1002800088F2A8BB04C08855924061F2B8BBCB018C
:100290000197F1F718BACA010197F1F7C3CFAA1B6A
:1002A000BB1B51E107C0AA1FBB1FA617B70710F061
:1002B000A61BB70B881F991F5A95A9F78095909593
:0A02C000BC01CD010895F894FFCFB2
:00000001FF
