:100000000C9446000C9465000C9465000C946500FB
:100010000C9465000C9465000C9465000C946500CC
:100020000C9465000C9465000C9465000C946500BC
:100030000C9465000C9465000C9465000C946500AC
:100040000C9465000C9465000C9465000C9465009C
:100050000C9465000C9465000C9465000C9465008C
:100060000C9465000C9465000C9465000C9465007C
:100070000C9465000C9465000C9465000C9465006C
:100080000C9465000C9465000C94650011241FBE4F
:10009000CFEFD0E1DEBFCDBF11E0A0E0B1E0EAE1FB
:1000A000F4E000E00BBF02C007900D92A030B10752
:1000B000D9F711E0A0E0B1E001C01D92A230B10774
:1000C000E1F70E94AC010C940B020C940000282F65
:1000D000207F25BBA898A898AA9A20E43FE1F901BF
:1000E0003197F1F7AA9890E044E0880F991F4A955C
:1000F000E1F785BBAA9AC9010197F1F7AA9808957B
:1001000082E090E00E94670088E290E00E94670031
:100110008CE090E00E94670086E090E00E9467001B
:100120000895282F207F25BBA89AAA9A20E43FE1B2
:10013000F9013197F1F7AA9890E054E0880F991FE0
:100140005A95E1F785BBA89AAA9AC9010197F1F7D8
:10015000AA98089580E40E94670081E10E949100BE
:1001600081E10E94910081E10E9491008FE00E9454
:10017000910081E00E94910081E00E9491008BE05B
:100180000E94910087E00E949100089588E40E94F7
:10019000670080E00E94910080E00E94910080E072
:1001A0000E94910080E00E94910080E00E949100F6
:1001B00080E00E94910080E00E9491008FE10E9407
:1001C0009100089580E50E94670081E00E949100FF
:1001D00081E00E9491008FE10E94910085E10E94E0
:1001E000910089E00E94910081E00E94910081E0ED
:1001F0000E94910081E00E949100089588E50E948C
:10020000670080E00E94910080E00E94910080E001
:100210000E94910080E00E94910081E00E94910084
:1002200082E00E94910084E00E9491008FE10E9490
:100230009100089580E60E94670080E00E9491008E
:1002400080E00E94910080E00E94910080E00E9486
:10025000910080E10E94910088E00E94910088E076
:100260000E9491008FE10E949100089588E60E940B
:10027000670088E00E94910088E00E94910088E079
:100280000E94910088E00E94910088E00E94910005
:1002900088E00E94910088E00E94910088E00E941E
:1002A0009100089580E70E94670081E00E9491001C
:1002B00081E00E94910081E00E9491008FE00E9405
:1002C000910081E10E94910081E10E94910081E111
:1002D0000E94910089E00E949100089588E70E94A1
:1002E000670081E00E94910081E00E94910081E01E
:1002F0000E94910087E10E94910085E10E94910097
:100300008DE00E94910081E00E94910081E00E94B6
:100310009100089580E60E94670080E00E949100AD
:1003200080E00E94910080E00E94910080E00E94A5
:10033000910082E10E9491008AE00E9491008CE08D
:100340000E9491008FE10E94910086E80E94670060
:1003500084E00E94910008958FEF84BB0E9480008A
:100360000E94AA000E94E2000E9436010E945201EF
:100370000E946E0180EC0E94670080E00E94910064
:1003800082E00E94910085E00E94910086E00E9438
:10039000910080E20E94910080E20E94910087E03B
:1003A0000E94910082E00E9491000E94C6000E947B
:1003B000FE000E941A0180E80E94670081E00E940E
:1003C000910083E00E94910084E00E94910081E00E
:1003D0000E94910080E20E94910080E20E949100C0
:1003E00080E20E94910081E00E94910080E197E20A
:1003F00020E931E0F9013197F1F70197D9F70E942F
:100400008A0180E197E220E931E0F9013197F1F7C3
:0A0410000197D9F70895F894FFCF83
:00000001FF
