:100000000C9446000C9465000C9465000C946500FB
:100010000C9465000C9465000C9465000C946500CC
:100020000C9465000C9465000C9465000C946500BC
:100030000C9465000C9465000C9465000C946500AC
:100040000C9465000C9465000C9465000C9465009C
:100050000C9465000C9465000C9465000C9465008C
:100060000C9465000C9465000C9465000C9465007C
:100070000C9465000C9465000C9465000C9465006C
:100080000C9465000C9465000C94650011241FBE4F
:10009000CFEFD0E1DEBFCDBF11E0A0E0B1E0E4E9F9
:1000A000F2E000E00BBF02C007900D92A230B10752
:1000B000D9F711E0A2E0B1E001C01D92A430B10770
:1000C000E1F70E94E9000C9448010C940000282FED
:1000D000207F25BBA898A898AA9A20E43CE9F901BA
:1000E0003197F1F7AA9890E044E0880F991F4A955C
:1000F000E1F785BBAA9AC9010197F1F7AA9808957B
:1001000082E090E00E94670088E290E00E94670031
:100110008CE090E00E94670086E090E00E9467001B
:100120000895282F207F25BBA89AAA9A20E43CE9AD
:10013000F9013197F1F7AA9890E054E0880F991FE0
:100140005A95E1F785BBA89AAA9AC9010197F1F7D8
:10015000AA980895EF92FF921F93CF93DF93EC013B
:1001600010E060E9E62E61E0F62E0AC00E949100E0
:100170008CEA9DE0F7013197F1F70197D9F71F5FFE
:10018000FE01E10FF11D8081882381F7DF91CF917E
:100190001F91FF90EF9008950F931F938C0184E0BF
:1001A0000E946700C8016AE070E00E943401805D2F
:1001B0000E949100C8016AE070E00E943401862F1D
:1001C000805D0E94910086E00E9467001F910F9160
:1001D0000895EF92FF920F931F93CF93DF938FEFCA
:1001E00084BB0E94800085E80E94670080E091E067
:1001F0000E94AA008AE80E94670080E091E00E94C5
:10020000AA0071E0E72EF12C25C08DE80E9467005E
:10021000CE010E94CC002196CC33D105B1F788E8FD
:100220000E946700C8010E94CC000F5F1F4F0C3373
:10023000110519F0C0E0D0E0E8CF83E80E94670024
:10024000C7010E94CC000894E11CF11C88E1E8166B
:10025000F10419F001E010E0EDCFDF91CF911F9193
:100260000F91FF90EF900895AA1BBB1B51E107C0AF
:10027000AA1FBB1FA617B70710F0A61BB70B881F36
:10028000991F5A95A9F780959095BC01CD010895C5
:04029000F894FFCF10
:020294003A002E
:00000001FF
