:100000000C942A000C9447000C9447000C94470071
:100010000C9447000C9447000C9447000C94470044
:100020000C9447000C9447000C9447000C94470034
:100030000C9447000C9447000C9447000C94470024
:100040000C9447000C9447000C9447000C94470014
:100050000C94470011241FBECFE5D4E0DEBFCDBF16
:1000600010E0A0E6B0E0E8E4F1E002C005900D92F7
:10007000A036B107D9F710E0A0E6B0E001C01D92AC
:10008000A036B107E1F70E945E000C94A2000C9428
:10009000000080E487B987E886B90895806487B94D
:1000A000369A349BFECF349A24B135B1C9010895F4
:1000B00083B78A6183BF88E087BB089583B78A616D
:1000C00083BF88E087BB80E487B987E886B940E4CE
:1000D000E0E4FCE947B9369A349BFECF349A24B168
:1000E00035B1C90164E070E00E947B006CBFCF01B4
:1000F0000197F1F7EFCF97FB092E07260AD077FD7E
:1001000004D00CD006D000201AF4709561957F4F72
:100110000895F6F7909581959F4F0895AA1BBB1BF4
:1001200051E107C0AA1FBB1FA617B70710F0A61BF7
:10013000B70B881F991F5A95A9F780959095BC0118
:08014000CD010895F894FFCFF2
:00000001FF
