:100000000C9446000C9465000C9465000C946500FB
:100010000C9465000C9465000C9465000C946500CC
:100020000C9465000C9465000C9465000C946500BC
:100030000C9465000C9465000C9465000C946500AC
:100040000C9465000C9465000C9465000C9465009C
:100050000C9465000C9465000C9465000C9465008C
:100060000C9465000C9465000C9465000C9465007C
:100070000C9465000C9465000C9465000C9465006C
:100080000C9465000C9465000C94650011241FBE4F
:10009000CFEFD0E1DEBFCDBF11E0A0E0B1E0E8EAF4
:1000A000F2E000E00BBF02C007900D92A030B10754
:1000B000D9F711E0A0E0B1E001C01D92A230B10774
:1000C000E1F70E94EA000C9452010C940000282FE2
:1000D000207F25BBA898A898AA9A20E43FE1F901BF
:1000E0003197F1F7AA9890E044E0880F991F4A955C
:1000F000E1F785BBAA9AC9010197F1F7AA9808957B
:1001000082E090E00E94670088E290E00E94670031
:100110008CE090E00E94670086E090E00E9467001B
:100120000895282F207F25BBA89AAA9A20E43FE1B2
:10013000F9013197F1F7AA9890E054E0880F991FE0
:100140005A95E1F785BBA89AAA9AC9010197F1F7D8
:10015000AA980895EF92FF921F93CF93DF93EC013B
:1001600010E060EAE62E6FE0F62E06C00E949100D5
:100170001F5FC7010197F1F7FE01E10FF11D8081BB
:100180008823A1F7DF91CF911F91FF90EF90089501
:10019000CF93DF93EC0184E00E946700209791F4F5
:1001A00080E30E9491000EC0CE016AE070E00E94E0
:1001B0003E01805D0E949100CE016AE070E00E94E5
:1001C0003E01EB01209781F786E00E946700DF91F6
:1001D000CF9108958FEF87BB80E487B987E886B910
:1001E000A0E4FFE0EFE37FE16FE75FEF43E037E09C
:1001F00021E0A7B9369A349BFECF349A84B195B1E9
:10020000880F892F881F990B919583309105D9F01C
:100210008430910530F48130910589F0029788F49B
:100220000CC08530910599F08530910570F08630CD
:10023000910579F0079789F40EC028BBDACF48BB47
:10024000D8CF38BBD6CFF8BBD4CF78BBD2CFE8BBA2
:10025000D0CF68BBCECF58BBCCCF18BACACF80E4C2
:1002600087B987E886B90895806487B9369A349B40
:10027000FECF349A24B135B1C9010895AA1BBB1B26
:1002800051E107C0AA1FBB1FA617B70710F0A61B96
:10029000B70B881F991F5A95A9F780959095BC01B7
:0802A000CD010895F894FFCF91
:00000001FF
