:100000000C9446000C9465000C9465000C946500FB
:100010000C9465000C9465000C9465000C946500CC
:100020000C9465000C9465000C9465000C946500BC
:100030000C9465000C9465000C9465000C946500AC
:100040000C9465000C9465000C9465000C9465009C
:100050000C9465000C9465000C9465000C9465008C
:100060000C9465000C9465000C9465000C9465007C
:100070000C9465000C9465000C9465000C9465006C
:100080000C9465000C9465000C94650011241FBE4F
:10009000CFEFD0E1DEBFCDBF11E0A0E0B1E0E2E301
:1000A000F2E000E00BBF02C007900D92A631B1074D
:1000B000D9F711E0A6E1B1E001C01D92A831B10766
:1000C000E1F70E94C8000C9417010C940000282F3F
:1000D000207F25BBA898A898AA9A20E43FE1F901BF
:1000E0003197F1F7AA9890E044E0880F991F4A955C
:1000F000E1F785BBAA9AC9010197F1F7AA9808957B
:1001000082E090E00E94670088E290E00E94670031
:100110008CE090E00E94670086E090E00E9467001B
:100120000895282F207F25BBA89AAA9A20E43FE1B2
:10013000F9013197F1F7AA9890E054E0880F991FE0
:100140005A95E1F785BBA89AAA9AC9010197F1F7D8
:10015000AA980895EF92FF921F93CF93DF93EC013B
:1001600010E060EAE62E6FE0F62E06C00E949100D5
:100170001F5FC7010197F1F7FE01E10FF11D8081BB
:100180008823A1F7DF91CF911F91FF90EF90089501
:10019000EF92FF921F93CF93DF938FEF84BB0E9468
:1001A00080001FE870E9E72E71E0F72E19C0812F5B
:1001B0000E94670080E091E00E94AA0088E893E135
:1001C000F7013197F1F70197D9F781E00E946700B5
:1001D0008AEF90E0F7013197F1F70197D9F71150C5
:1001E000113828F7CBE0D0E01BC084E00E94670004
:1001F000812F0E9467008BE091E00E94AA0088E8AE
:1002000093E1F7013197F1F70197D9F781E00E9467
:1002100067008AEF90E0F7013197F1F70197D9F77E
:10022000CE018258182F219701F71FE8C0CFF8940C
:02023000FFCFFE
:1002320050554E4954204A41494E004E49414A20A8
:0602420054494E55500026
:00000001FF
