:100000000C9446000C9465000C9465000C946500FB
:100010000C9465000C9465000C9465000C946500CC
:100020000C9465000C9465000C9465000C946500BC
:100030000C9465000C9465000C9465000C946500AC
:100040000C9465000C9465000C9465000C9465009C
:100050000C9465000C9465000C9465000C9465008C
:100060000C9465000C9465000C9465000C9465007C
:100070000C9465000C9465000C9465000C9465006C
:100080000C9465000C9465000C94650011241FBE4F
:10009000CFEFD0E1DEBFCDBF11E0A0E0B1E0E2EBF9
:1000A000F2E000E00BBF02C007900D92A030B10754
:1000B000D9F711E0A0E0B1E001C01D92A230B10774
:1000C000E1F70E94CC000C9457010C940000282FFB
:1000D000207F25BBA898A898AA9A20E43FE1F901BF
:1000E0003197F1F7AA9890E044E0880F991F4A955C
:1000F000E1F785BBAA9AC9010197F1F7AA9808957B
:1001000082E090E00E94670088E290E00E94670031
:100110008CE090E00E94670086E090E00E9467001B
:100120000895282F207F25BBA89AAA9A20E43FE1B2
:10013000F9013197F1F7AA9890E054E0880F991FE0
:100140005A95E1F785BBA89AAA9AC9010197F1F7D8
:10015000AA980895EF92FF921F93CF93DF93EC013B
:1001600010E060E9E62E61E0F62E0AC00E949100E0
:100170008CEA9DE0F7013197F1F70197D9F71F5FFE
:10018000FE01E10FF11D8081882381F7DF91CF917E
:100190001F91FF90EF900895EF92FF920F931F939E
:1001A000CF93DF938FEF84BB0E948000C0E0D0E04C
:1001B00070E9E72E71E0F72ECE0164E670E00E9450
:1001C0003001182F092F80E80E9467008C2F0E94B1
:1001D000910080E20E949100CE0164E670E00E94EE
:1001E0003001862F805D0E949100812F902F6AE060
:1001F00070E00E943001862F805D0E949100812F67
:10020000902F6AE070E00E943001805D0E949100B2
:1002100080E197E2F7013197F1F70197D9F780E88C
:100220000E94670080E20E94910080E20E9491009B
:1002300080E20E94910080E20E94910080E20E9490
:10024000910088E893E1F7013197F1F70197D9F729
:100250002196CF3FD1050CF4AFCFC0E0D0E0ACCFBA
:1002600097FB092E07260AD077FD04D00CD006D0C4
:1002700000201AF4709561957F4F0895F6F79095D8
:1002800081959F4F0895AA1BBB1B51E107C0AA1F70
:10029000BB1FA617B70710F0A61BB70B881F991F27
:1002A0005A95A9F780959095BC01CD010895F894D1
:0202B000FFCF7E
:00000001FF
