:100000000C9446000C9465000C9465000C946500FB
:100010000C9465000C9465000C9465000C946500CC
:100020000C9465000C9465000C9465000C946500BC
:100030000C9465000C9465000C9465000C946500AC
:100040000C9465000C9465000C9465000C9465009C
:100050000C9465000C9465000C9465000C9465008C
:100060000C9465000C9465000C9465000C9465007C
:100070000C9465000C9465000C9465000C9465006C
:100080000C9465000C9465000C94650011241FBE4F
:10009000CFEFD0E1DEBFCDBF11E0A0E0B1E0ECE3F7
:1000A000F1E000E00BBF02C007900D92A030B10755
:1000B000D9F711E0A0E0B1E001C01D92A030B10776
:1000C000E1F70E9476000C949C000C94000080E400
:1000D00087B987E886B90895806487B9369A349BD2
:1000E000FECF349A24B135B1C90108958FEF84BB96
:1000F00080EF8ABB80E487B987E886B950E441E4A1
:1001000057B9369A349BFECF349A24B135B147B9EA
:10011000369A349BFECF349A84B195B1295532403A
:1001200078F322E08835920710F4DF9AE9CF8855FA
:0C013000924031F3DF98E4CFF894FFCF49
:00000001FF
