:100000000C9446000C9465000C9465000C946500FB
:100010000C9465000C9465000C9465000C946500CC
:100020000C9465000C9465000C9465000C946500BC
:100030000C9465000C9465000C9465000C946500AC
:100040000C9465000C9465000C9465000C9465009C
:100050000C9465000C9465000C9465000C9465008C
:100060000C9465000C9465000C9465000C9465007C
:100070000C9465000C9465000C9465000C9465006C
:100080000C9465000C9465000C94650011241FBE4F
:10009000CFEFD0E1DEBFCDBF11E0A0E0B1E0E6E9F7
:1000A000F2E000E00BBF02C007900D92AC31B10747
:1000B000D9F711E0ACE1B1E001C01D92AE31B1075A
:1000C000E1F70E94E5000C9449010C940000282FF0
:1000D000207F25BBA898A898AA9A20E43FE1F901BF
:1000E0003197F1F7AA9890E044E0880F991F4A955C
:1000F000E1F785BBAA9AC9010197F1F7AA9808957B
:1001000082E090E00E94670088E290E00E94670031
:100110008CE090E00E94670086E090E00E9467001B
:100120000895282F207F25BBA89AAA9A20E43FE1B2
:10013000F9013197F1F7AA9890E054E0880F991FE0
:100140005A95E1F785BBA89AAA9AC9010197F1F7D8
:10015000AA980895EF92FF921F93CF93DF93EC013B
:1001600010E060EAE62E6FE0F62E06C00E949100D5
:100170001F5FC7010197F1F7FE01E10FF11D8081BB
:100180008823A1F7DF91CF911F91FF90EF90089501
:100190000F931F938C0184E00E946700C8016AE0FE
:1001A00070E00E943501805D0E949100C8016AE004
:1001B00070E00E943501862F805D0E94910086E0EC
:1001C0000E9467001F910F910895EF92FF920F9385
:1001D0001F93CF93DF931ABA8FEF84BB87BB0E9424
:1001E000800080E80E94670080E091E00E94AA0001
:1001F00080E090E00E94C80080EC0E9467008DE0E3
:1002000091E00E94AA0080E090E00E94C80000E017
:1002100010E0C0E0D0E0EFE0EE2E70EFF72EC899CE
:1002200002C00AC0E8BAC99BFDCFC99B05C0C999E5
:10023000FECF0F5F1F4F18BAC99902C009C0F8BAA4
:10024000C89BFDCFC89B04C0C899FECF219618BAA1
:100250008BE80E946700C8010E94C8008CEC0E94D5
:100260006700CE010E94C800DACFAA1BBB1B51E178
:1002700007C0AA1FBB1FA617B70710F0A61BB70B16
:10028000881F991F5A95A9F780959095BC01CD01BB
:060290000895F894FFCF71
:1002960053656E736F7220496E203A200053656E67
:0C02A600736F72206F7574203A20000006
:00000001FF
