:100000000C9446000C9465000C9465000C946500FB
:100010000C9465000C9465000C9465000C946500CC
:100020000C9465000C9465000C9465000C946500BC
:100030000C9465000C9465000C9465000C946500AC
:100040000C9465000C9465000C9465000C9465009C
:100050000C9465000C9465000C9465000C9465008C
:100060000C9465000C9465000C9465000C9465007C
:100070000C9465000C9465000C9465000C9465006C
:100080000C9465000C9465000C94650011241FBE4F
:10009000CFEFD0E1DEBFCDBF11E0A0E0B1E0E6EFF1
:1000A000F2E000E00BBF02C007900D92A832B1074A
:1000B000D9F711E0A8E2B1E001C01D92AA32B10760
:1000C000E1F70E94F9000C9479010C94000080E49F
:1000D00087B987E886B90895806487B9369A349BD2
:1000E000FECF349A24B135B1C9010895282F207F5D
:1000F00025BBA898A898AA9A20E43FE1F901319776
:10010000F1F7AA9890E044E0880F991F4A95E1F72B
:1001100085BBAA9AC9010197F1F7AA98089582E0D0
:1001200090E00E94760088E290E00E9476008CE0E9
:1001300090E00E94760086E090E00E9476000895AC
:10014000282F207F25BBA89AAA9A20E43FE1F90135
:100150003197F1F7AA9890E054E0880F991F5A95CB
:10016000E1F785BBA89AAA9AC9010197F1F7AA9865
:100170000895EF92FF921F93CF93DF93EC0110E06D
:1001800060EAE62E6FE0F62E06C00E94A0001F5F18
:10019000C7010197F1F7FE01E10FF11D808188236E
:1001A000A1F7DF91CF911F91FF90EF900895CF932A
:1001B000DF93EC0184E00E947600209791F480E3C5
:1001C0000E94A0000EC0CE016AE070E00E946501AE
:1001D000805D0E94A000CE016AE070E00E9465018F
:1001E000EB01209781F786E00E947600DF91CF91A6
:1001F0000895DF92EF92FF920F931F93CF93DF93B7
:100200008FEF84BB80EF8ABB0E948F0080E80E9442
:10021000760080E091E00E94B90080EC0E947600B8
:1002200086E091E00E94B90080E487B987E886B94A
:10023000E0E4DE2E74EFE72E71E0F72ED7B8369AA1
:10024000349BFECF349A04B115B10E9DC0010F9DB1
:10025000900D1E9D900D11246FEF73E00E946501BB
:10026000EB016432710520F1C0E9D1E0DF9A81E051
:100270000E94A00080E197E2FE013197F1F701971B
:10028000D9F780E80E94760080E191E00E94B900F1
:1002900080EC0E94760086E191E00E94B900DF9830
:1002A00080E197E2FE013197F1F70197D9F7DECFB0
:1002B0008FE80E947600CE010E94D7008FEC0E944A
:1002C0007600C8010E94D700B9CFAA1BBB1B51E121
:1002D00007C0AA1FBB1FA617B70710F0A61BB70BB6
:1002E000881F991F5A95A9F780959095BC01CD015B
:0602F0000895F894FFCF11
:1002F60054656D703A004144432076616C75650023
:10030600416C65727400486967682054656D706554
:0803160072617475726500004C
:00000001FF
