:100000000C9446000C9465000C9465000C946500FB
:100010000C9465000C9465000C9465000C946500CC
:100020000C9465000C9465000C9465000C946500BC
:100030000C9465000C9465000C9465000C946500AC
:100040000C9465000C9465000C9465000C9465009C
:100050000C9465000C9465000C9465000C9465008C
:100060000C9465000C9465000C9465000C9465007C
:100070000C9465000C9465000C9465000C9465006C
:100080000C9465000C9465000C94650011241FBE4F
:10009000CFEFD0E1DEBFCDBF11E0A0E0B1E0E8E7F7
:1000A000F2E000E00BBF02C007900D92A03AB1074A
:1000B000D9F711E0A0EAB1E001C01D92A23AB10760
:1000C000E1F70E94C8000C943A010C940000282F1C
:1000D000207F25BBA898A898AA9A20E43FE1F901BF
:1000E0003197F1F7AA9890E044E0880F991F4A955C
:1000F000E1F785BBAA9AC9010197F1F7AA9808957B
:1001000082E090E00E94670088E290E00E94670031
:100110008CE090E00E94670086E090E00E9467001B
:100120000895282F207F25BBA89AAA9A20E43FE1B2
:10013000F9013197F1F7AA9890E054E0880F991FE0
:100140005A95E1F785BBA89AAA9AC9010197F1F7D8
:10015000AA980895EF92FF921F93CF93DF93EC013B
:1001600010E060EAE62E6FE0F62E06C00E949100D5
:100170001F5FC7010197F1F7FE01E10FF11D8081BB
:100180008823A1F7DF91CF911F91FF90EF90089501
:100190008F929F92AF92BF92CF92DF92EF92FF9297
:1001A0000F931F93DF93CF93CDB7DEB7A8970FB60A
:1001B000F894DEBF0FBECDBF1ABA8FEF84BB0E948A
:1001C00080008E010F5F1F4FB7E18B2EA2E1CA2E78
:1001D000D12CCC0EDD1EF6E19F2EE3E1EE2EF12CAC
:1001E000EC0EFD1E70E2A72E7EE4B72EC89B0BC05E
:1001F000D801E0E0F1E082E101900D928150E1F759
:10020000F701892D0AC0D801E8E2F1E081E101900F
:100210000D928150E1F7F601882D11928A95E9F748
:1002200080E80E946700C8010E94AA00C99B0BC019
:10023000D801E0E5F1E082E101900D928150E1F713
:10024000F701892D0AC0D801E8E7F1E081E10190CA
:100250000D928150E1F7F601882D11928A95E9F708
:1002600080EC0E946700C8010E94AA00C5010197A6
:08027000F1F7BCCFF894FFCFB9
:1002780053313A204C69676874205375726661631C
:100288006500000000000000000000000000000001
:10029800000000000000000053313A204461726BF6
:1002A800205375726661636500000000000000005D
:1002B8000000000000000000000000000000000036
:1002C80053323A204C6967687420537572666163CB
:1002D80065000000000000000000000000000000B1
:1002E800000000000000000053323A204461726BA5
:1002F800205375726661636500000000000000000D
:1003080000000000000000000000000000000000E5
:00000001FF
