:100000000C9446000C9465000C9465000C946500FB
:100010000C9465000C9465000C9465000C946500CC
:100020000C9465000C9465000C9465000C946500BC
:100030000C9465000C9465000C9465000C946500AC
:100040000C9465000C9465000C9465000C9465009C
:100050000C9465000C9465000C9465000C9465008C
:100060000C9465000C9465000C9465000C9465007C
:100070000C9465000C9465000C9465000C9465006C
:100080000C9465000C9465000C94650011241FBE4F
:10009000CFEFD0E1DEBFCDBF11E0A0E0B1E0EAEAF2
:1000A000F1E000E00BBF02C007900D92A030B10755
:1000B000D9F711E0A0E0B1E001C01D92A230B10774
:1000C000E1F70E94C6000C94D3000C940000282F86
:1000D000207F25BBA898A898AA9A20E43FE1F901BF
:1000E0003197F1F7AA9890E044E0880F991F4A955C
:1000F000E1F785BBAA9AC9010197F1F7AA9808957B
:1001000082E090E00E94670088E290E00E94670031
:100110008CE090E00E94670086E090E00E9467001B
:100120000895282F207F25BBA89AAA9A20E43FE1B2
:10013000F9013197F1F7AA9890E054E0880F991FE0
:100140005A95E1F785BBA89AAA9AC9010197F1F7D8
:10015000AA98089580E40E9467008FE10E949100B0
:1001600081E10E94910081E10E94910081E10E9461
:1001700091008FE10E94910081E10E94910081E154
:100180000E94910081E10E94910008958FEF84BB4D
:100190000E9480000E94AA0080E80E94670080E020
:0A01A0000E949100F7CFF894FFCF02
:00000001FF
