:100000000C9446000C9465000C9465000C946500FB
:100010000C9465000C9465000C9465000C946500CC
:100020000C9465000C9465000C9465000C946500BC
:100030000C9465000C9465000C9465000C946500AC
:100040000C9465000C9465000C9465000C9465009C
:100050000C9465000C9465000C9465000C9465008C
:100060000C9465000C9465000C9465000C9465007C
:100070000C9465000C9465000C9465000C9465006C
:100080000C9465000C9465000C94650011241FBE4F
:10009000CFEFD0E1DEBFCDBF11E0A0E0B1E0E0E303
:1000A000F3E000E00BBF02C007900D92A436B10749
:1000B000D9F711E0A4E6B1E001C01D92A636B10760
:1000C000E1F70E94F9000C9496010C940000282F8F
:1000D000207F25BBA898A898AA9A20E43FE1F901BF
:1000E0003197F1F7AA9890E044E0880F991F4A955C
:1000F000E1F785BBAA9AC9010197F1F7AA9808957B
:1001000082E090E00E94670088E290E00E94670031
:100110008CE090E00E94670086E090E00E9467001B
:100120000895282F207F25BBA89AAA9A20E43FE1B2
:10013000F9013197F1F7AA9890E054E0880F991FE0
:100140005A95E1F785BBA89AAA9AC9010197F1F7D8
:10015000AA980895EF92FF921F93CF93DF93EC013B
:1001600010E060EAE62E6FE0F62E06C00E949100D5
:100170001F5FC7010197F1F7FE01E10FF11D8081BB
:100180008823A1F7DF91CF911F91FF90EF90089501
:10019000CF93DF93EC0184E00E946700209791F4F5
:1001A00080E30E9491000EC0CE016AE070E00E94E0
:1001B0008201805D0E949100CE016AE070E00E94A1
:1001C0008201EB01209781F786E00E946700DF91B2
:1001D000CF91089580E487B987E886B9089580644F
:1001E00087B9369A349BFECF349A24B135B1C90110
:1001F00008958F929F92AF92BF92CF92DF92EF922B
:10020000FF920F931F93DF93CF93CDB7DEB7A897DD
:100210000FB6F894DEBF0FBECDBF1ABA8FEF84BB06
:100220000E94800080E487B987E886B9A0E48A2E1E
:100230007E010894E11CF11CFEE19F2EEBE0AE2E46
:10024000B12CAC0EBD1E70E9C72E71E0D72E87B859
:10025000369A349BFECF349A04B115B1D701EBE343
:10026000F1E08AE001900D928150E1F7F501892DCE
:1002700011928A95E9F781E00E94670080E80E9468
:100280006700C7010E94AA008FE80E946700C801AA
:100290000E94C80080EC0E946700083C110524F40D
:1002A00080E091E00E94AA00C801895C9040873CF0
:1002B000910520F48DE091E00E94AA00C8018159C7
:1002C0009140873C910520F482E191E00E94AA00D0
:1002D000C80189559240873C910520F48FE191E057
:1002E0000E94AA000152134024F08CE291E00E9487
:1002F000AA0080E197E2F6013197F1F7019709F43E
:10030000A6CFF9CFAA1BBB1B51E107C0AA1FBB1F79
:10031000A617B70710F0A61BB70B881F991F5A9591
:10032000A9F780959095BC01CD010895F894FFCF71
:1003300045787472656D65204461726B004461722A
:100340006B004C6F77204461726B6E657373004C69
:1003500069676874204272696768740045787472CE
:10036000656D6520427269676874004C445220765E
:10037000616C7565000000000000000000000000D6
:10038000000000000000000000000000000000006D
:040390000000000069
:00000001FF
