:100000000C9446000C9465000C9465000C946500FB
:100010000C9465000C9465000C9465000C946500CC
:100020000C9465000C9465000C9465000C946500BC
:100030000C9465000C9465000C9465000C946500AC
:100040000C9465000C9465000C9465000C9465009C
:100050000C9465000C9465000C9465000C9465008C
:100060000C9465000C9465000C9465000C9465007C
:100070000C9465000C9465000C9465000C9465006C
:100080000C9465000C9465000C94650011241FBE4F
:10009000CFEFD0E1DEBFCDBF11E0A0E0B1E0E2E6FE
:1000A000F3E000E00BBF02C007900D92A030B10753
:1000B000D9F711E0A0E0B1E001C01D92A230B10774
:1000C000E1F70E94EA000C94AF010C940000282F85
:1000D000207F25BBA898A898AA9A20E43FE1F901BF
:1000E0003197F1F7AA9890E044E0880F991F4A955C
:1000F000E1F785BBAA9AC9010197F1F7AA9808957B
:1001000082E090E00E94670088E290E00E94670031
:100110008CE090E00E94670086E090E00E9467001B
:100120000895282F207F25BBA89AAA9A20E43FE1B2
:10013000F9013197F1F7AA9890E054E0880F991FE0
:100140005A95E1F785BBA89AAA9AC9010197F1F7D8
:10015000AA980895EF92FF921F93CF93DF93EC013B
:1001600010E060EAE62E6FE0F62E06C00E949100D5
:100170001F5FC7010197F1F7FE01E10FF11D8081BB
:100180008823A1F7DF91CF911F91FF90EF90089501
:10019000CF93DF93EC0184E00E946700209791F4F5
:1001A00080E30E9491000EC0CE016AE070E00E94E0
:1001B0009B01805D0E949100CE016AE070E00E9488
:1001C0009B01EB01209781F786E00E946700DF9199
:1001D000CF9108952F923F924F925F926F927F92AC
:1001E0008F929F92AF92BF92CF92DF92EF92FF9247
:1001F0000F931F93CF93DF9380EF8ABB8FEF87BB63
:1002000084BB0E94800080E80E946700C0E4DCE9B3
:1002100064E0262E5FED352E45E0442E36E0532E69
:1002200027E0622E98E0792E8FEB882E09E0902E41
:100230001AE0A12EBBE0BB2EACE0CA2EFFE7DF2EFA
:10024000EDE0EE2E7EE0F72E0FE010E18FEE8BBB9F
:10025000CE010197F1F7D89905C081E088BB81E410
:100260000E949100D99905C082E088BB82E40E9477
:100270009100DA9905C083E088BB83E40E94910075
:10028000DB9904C028BA84E40E9491003BBACE01F5
:100290000197F1F7D89904C048BA85E40E9491000B
:1002A000D99904C058BA86E40E949100DA9904C032
:1002B00068BA87E40E949100DB9904C078BA88E4A8
:1002C0000E9491008BBACE010197F1F7D89904C032
:1002D00098BA89E40E949100D99904C0A8BA8AE426
:1002E0000E949100DA9904C0B8BA8BE40E94910090
:1002F000DB9904C0C8BA8CE40E949100DBBACE013D
:100300000197F1F7D89904C0E8BA8DE40E949100F2
:10031000D99904C0F8BA8EE40E949100DA9904C019
:1003200008BB8FE40E949100DB9990CF18BB80E559
:100330000E9491008BCFAA1BBB1B51E107C0AA1FD3
:10034000BB1FA617B70710F0A61BB70B881F991F76
:100350005A95A9F780959095BC01CD010895F89420
:02036000FFCFCD
:00000001FF
